:020000040800F2
:1000000000A00020C91400081115000811150008EF
:100010001115000811150008111500080000000056
:1000200000000000000000000000000011150008A2
:100030001115000800000000111500081115000836
:1000400000000000000000000000000000000000B0
:1000500000000000000000000000000000000000A0
:100060000000000000000000000000000000000090
:100070000000000000000000000000000000000080
:100080000000000000000000000000000000000070
:100090000000000000000000000000000000000060
:1000A0000000000000000000000000000000000050
:1000B0000000000000000000000000000000000040
:1000C0000000000000000000000000000000000030
:1000D0000000000000000000000000000000000020
:1000E0000000000000000000000000000000000010
:1000F0000000000000000000000000000000000000
:1001000000000000000000000000000000000000EF
:1001100000000000000000000000000000000000DF
:1001200000000000000000000000000000000000CF
:1001300000000000000000000000000000000000BF
:1001400000000000000000000000000000000000AF
:10015000000000000000000000000000000000009F
:10016000000000000000000000000000000000008F
:10017000000000000000000000000000000000007F
:08018000000000000000000077
:1001880010B5054C237833B9044B13B10448AFF3C9
:1001980000800123237010BD10040020000000001F
:1001A8007815000808B5034B1BB103490348AFF3A2
:1001B800008008BD00000000140400207815000825
:1001C80013B50024019400F06BFAADF80040BDF8B7
:1001D80000309BB2312B0FD900F069FA01AA042133
:1001E800722000F0F7F8019840F6C413C01A18BF3F
:1001F8000120000102B010BDADF80240BDF8023088
:100208009BB2312B06D9BDF8003001339BB2ADF853
:100218000030DCE7019B01330193BDF80230013364
:100228009BB2ADF80230E9E710B5044601F045F994
:1002380000F036FA204601F03EF900F038FA204680
:1002480001F03CF922461021722000F0C3F800208A
:1002580010BDF8B511F004040E4615461F460AD025
:1002680019784C1CE4B2944201D90420F8BD601AF4
:10027800184401F024F9B20708D51034E4B2A542B5
:10028800F3D3A4F11000384401F013F9F3070BD5A8
:100298001034E4B2A542E8D3A4F110001021384488
:1002A800FFF7C2FF0028E1D1641B18BF0124A0009A
:1002B800DCE700001FB5134B6A4603F1100615462C
:1002C80018685968144603C40833B3422246F7D164
:1002D80000F044F900F082F900F0BEF901F0E8F806
:1002E800284601F0E6F800F063F8074A10210120DB
:1002F80000F044F8054A0021672000F03FF800F0BC
:10030800C1F8FCE7901500085B020008C901000865
:1003180010B50246014400208A4200D110BD12F8EF
:10032800013B0824584043B2002BBABF5B0083F05E
:100338004D034300013CD8B2F5D1EDE730B50022BA
:10034800044601238B4201D3002030BD14F8015F1D
:1003580015B99D1A85541A460133DBB2F2E730B558
:1003680004780025024605702046884200D204B968
:1003780030BD145C15540319D8B2F6E738B50B4DE7
:100388002B680F2B04DD612000F0B2F9012038BD85
:10039800FF2901D96220F7E70C2404FB0354013339
:1003A8002071C4E902122B600020F0E70C02002043
:1003B80008B5064A00217620FFF7E0FFBDE80840AF
:1003C800034A00217720FFF7D9BF00BF3304000894
:1003D8005104000870B5C0B00C46002511468DF8D0
:1003E800010022460DF103008DF802408DF80050FF
:1003F80001F0B0F8A11CC9B20DF10100FFF788FFA8
:100408000DEB0403261D611DD870C9B268460DF8AE
:100418000650FFF793FF6C4614F8010B013500F006
:1004280067F9AE42F8DA40B070BD07B503230DF1A5
:100438000702012172208DF80730FFF7CBFF00205B
:1004480003B05DF804FB000030B50D48017885B0B5
:1004580000220C24D3B28B4202F1010206DB6A4669
:100468007220FFF7B7FF002005B030BD03F110057B
:1004780004FB03036D441B7905F8103CEAE700BF51
:100488000C0200202DE9F047C2B0002502AE8DF81D
:100498000750344600F012F906F8010B58B9052048
:1004A8008DF807000DF1070201216520FFF792FF83
:1004B80042B0BDE8F0870135042DEBD1294620462E
:1004C800FFF74DFF244F61783A68804600230C20DF
:1004D8005FFA83F9914502DB07D10120E0E700FBD1
:1004E8000976013336798E42F2D1E37805334345F4
:1004F80002DA0420D4E7354600F0E0F86055002819
:10050800CDD0E3786E1C0433B342F4DA00F0D6F8A9
:10051800A0550028EDD1C8F1010353FA86F1C9B2FC
:100528005FFA86FA04EB0800FFF719FFAAF1020147
:10053800C9B20DF10900FFF7EBFE635D834209D1F3
:100548000C2303FB0977E278FD68A17860786B4497
:10055800A847A5E70220A3E70C02002070B596B0D3
:10056800002403264FF4A0230CA80125CDE90C6331
:100578001094149400F0D4F80F23214602A8CDE972
:100588000235CDE90444069400F010FB114B5A697A
:1005980042F400225A615B69CDE9094603F400235D
:1005A8000D4C0193019B07A94FF4C0432046CDE9A8
:1005B800073500F09BFB2A4620464FF4005100F017
:1005C80053FC2A464FF48041204600F04DFC16B0FB
:1005D80070BD00BF001002400008004810B54FF47D
:1005E800C06288B00223CDE9032301210323CDE9AA
:1005F8000513164C07230793636943F400336361BB
:10060800636903F40033019303A94FF09040019B01
:1006180000F06CFB0E48DFF83CC04FF46133C0E9D2
:1006280000C30023C0E90233036183610C234361E3
:10063800A36943F48043A361A36903F4804302934D
:10064800029B00F02FFD08B010BD00BF0010024053
:10065800D002002000380140104B30B55A6942F4EE
:1006680000325A615B6987B003F400330093009B42
:100678004FF480540123CDE901430025032301A948
:100688004FF09040CDE9035300F030FB2A46214655
:100698004FF0904000F0E8FB07B030BD001002407A
:1006A80001224FF480514FF0904000F0DDBB002252
:1006B8004FF480514FF0904000F0D6BB37B50A4D4B
:1006C8000A4C41F2883301220DF10701284600F057
:1006D80069FD18B99DF8070003B030BD236A43F0DF
:1006E80008032362EDE700BFD00200200038014074
:1006F80007B541F288338DF8070001220DF1070193
:10070800024800F0F9FC03B05DF804FBD0020020B9
:10071800024B1868421C1A60704700BF4003002053
:1007280003682DE9F743D907044610D423689A07CC
:100738007ED423681E0700F1E78023685D0700F177
:100748002A81E269002A40F0AD8100201FE0AE490D
:100758004B6803F00C03042B07D04B6803F00C0321
:10076800082B17D14B68DB0314D54FF4003393FAE9
:10077800A3F2096893FAA3F30122B3FA83F302FA06
:1007880003F30B42D2D06368002BCFD1012003B012
:10079800BDE8F0836268B2F5803F22D10B6843F46C
:1007A80080330B60CB6AA06823F00F030343CB624E
:1007B8003AB3FFF7ADFF4FF400360546012796FA26
:1007C800A6F30A6896FAA6F3B3FA83F307FA03F3D3
:1007D8001342ABD1FFF79CFF401B6428EFD90320DD
:1007E800D5E70B6832B923F480330B600B6823F428
:1007F8008023D6E7B2F5A02FF5D143F480230B6010
:10080800CCE7FFF785FF4FF400360546012796FA37
:10081800A6F30A6896FAA6F3B3FA83F307FA03F382
:10082800134283D0FFF774FF401B6428EFD9D6E743
:1008380075494B6813F00C0F07D04B6803F00C0395
:10084800082B1FD14B68DF031CD4022393FAA3F2B1
:10085800086893FAA3F30122B3FA83F302FA03F3C5
:10086800034202D02369934290D10868F82292FA91
:10087800A2F26369B2FA82F2934020F0F8021343BD
:100888000B6056E722690125F2B195FAA5F3B3FA90
:1008980083F303F1845303F584139B0002271D603F
:1008A800FFF736FF064697FAA7F30A6897FAA7F301
:1008B800B3FA83F305FA03F31342D6D1FFF728FFFF
:1008C800801B0228EFD98AE795FAA5F3B3FA83F3D8
:1008D80003F1845303F584139B0002271A60FFF782
:1008E80017FF064697FAA7F30A6897FAA7F3B3FA29
:1008F80083F305FA03F313423FF41BAFFFF708FF36
:10090800801B0228EED96AE7A2693F4D3F480121C2
:1009180002B391FAA1F3B3FA83F303449B000226CE
:100928001960FFF7F5FE074696FAA6F396FAA6F3BE
:1009380096FAA6F36A6A96FAA6F3B3FA83F301FA6B
:1009480003F313427FF4F9AEFFF7E2FEC01B02285F
:10095800EAD944E791FAA1F3B3FA83F303449B007D
:1009680002261A60FFF7D4FE074696FAA6F396FA0F
:10097800A6F396FAA6F36A6A96FAA6F3B3FA83F38D
:1009880001FA03F313423FF4D8AEFFF7C1FEC01BD0
:100998000228EAD923E71C49CB69D80031D4CB69AE
:1009A80043F08053CB61CB6903F080530193019BE3
:1009B8000125174E3368DA052CD5E368012B39D1A8
:1009C8000B6A43F001030B62FFF7A2FE02260746FB
:1009D8004FF0010841F2883996FAA6F396FAA6F381
:1009E8000A6A96FAA6F3B3FA83F308FA03F31342F2
:1009F80052D0002D3FF4A5AECB6923F08053CB61D4
:100A08009FE60025D5E700BF001002402081901026
:100A180000700040336843F480733360FFF778FE5A
:100A280007463368DB05C8D4FFF772FEC01B64288D
:100A3800F7D9D4E613BB0B6A23F001030B620B6AE8
:100A480023F004030B62FFF763FE022607464FF00C
:100A5800010841F2883996FAA6F396FAA6F30A6ACB
:100A680096FAA6F3B3FA83F308FA03F31342C0D055
:100A7800FFF74EFEC01B4845EDD9B0E6052B0B6AC3
:100A880003D143F004030B629AE723F001030B62DE
:100A98000B6A23F0040396E7FFF73AFEC01B4845AC
:100AA8009AD99CE63F494B6803F00C03082B3FF4A6
:100AB8006DAE022A4FF0807350D193FAA3F3B3FAC4
:100AC80083F303F1845303F584139B0000221A6017
:100AD800FFF71EFEDFF8D08006464FF000770125AD
:100AE80097FAA7F30A6897FAA7F3B3FA83F305FA14
:100AF80003F313422CD1D4E908034A68034322F4D0
:100B0800741213434B604FF0807393FAA3F3B3FA54
:100B180083F303F1845303F584139B00224F1D6074
:100B2800FFF7F6FD4FF000750446012695FAA5F388
:100B38000A6895FAA5F3B3FA83F306FA03F31342A6
:100B48007FF403AEFFF7E4FD001BB842EED946E69A
:100B5800FFF7DEFD831B4345C2D940E693FAA3F3B2
:100B6800B3FA83F303F1845303F584139B00002243
:100B78001A60FFF7CDFD0C4F04464FF000750126B3
:100B880095FAA5F30A6895FAA5F3B3FA83F306FA7A
:100B980003F313423FF4D9ADFFF7BAFD001BB84287
:100BA800EED91CE600100240400D03004D4AF8B58E
:100BB800136803F007038B42044611D32268950794
:100BC8001AD4D00720D4474A136803F007038B428E
:100BD8006CD82268510774D413077AD400200AE02D
:100BE800136823F007030B431360136803F007032C
:100BF8008B42E3D00120F8BD3B48A568436823F049
:100C0800F0032B434360DCE76268374D012A25D1A6
:100C18004FF4003393FAA3F0286893FAA3F3B3FAD6
:100C280083F302FA03F30342E4D06B6823F003036F
:100C380013436B60FFF76CFD6368012B064641F2B6
:100C480088371CD16B6803F00C03042BBBD0FFF76B
:100C58005FFD801BB842F5D90320CCE7022A0CBF00
:100C68004FF00073022393FAA3F02E6893FAA3F3CC
:100C78000120B3FA83F300FA03F33342D4E7022BDB
:100C88000FD16B6803F00C03082B9CD0FFF740FDD5
:100C9800801BB842F5D9DFE7FFF73AFD801BB84261
:100CA800DAD86B6813F00C0FF6D18CE7136823F0D1
:100CB80007030B431360136803F007038B4299D1B2
:100CC80087E70949E0684B6823F4E06303434B6016
:100CD80082E7054A2169536823F4605343EAC10354
:100CE80053607BE700200240001002402DE9F74FD7
:100CF800DFF868815A4C00234FF00F090A6832FA6E
:100D080003F502D103B0BDE8F08F012505FA03FA17
:100D18001AEA020200F098804D6825F0100EBEF124
:100D2800020F11D1DF0800EB870703F0070C3E6ABA
:100D38004FEA8C0C09FA0CFB26EA0B0B0E6906FA33
:100D48000CF646EA0B063E62D0F800B04FEA430CB8
:100D5800032606FA0CF72BEA070BFE4305F00307F8
:100D680007FA0CF70EF1FF3E47EA0B07BEF1010F39
:100D7800076010D8876806EA070ECF6807FA0CF7ED
:100D880047EA0E078760476827EA0A0E2F099F403F
:100D980047EA0E074760C76837408E6806FA0CF6C0
:100DA8003E43C660EE004FD5D8F8186046F00106FD
:100DB800C8F81860D8F8186023F0030707F18047CF
:100DC80006F0010607F58037019603F0030C019E33
:100DD800BE684FEA8C0C09FA0CFEB0F1904F26EA77
:100DE8000E0E33D01F4EB04232D006F58066B042A8
:100DF80030D006F58066B0422ED006F58066B04247
:100E080014BF0526042606FA0CF646EA0E06BE604E
:100E18002668D74315F4803F0CBF3E401643266032
:100E2800666815F4003F0CBF3E4016436660A6682E
:100E380015F4801F0CBF3E401643A660E668AD025D
:100E480054BF3E401643E660013357E70026DAE711
:100E58000126D8E70226D6E70326D4E70010024089
:100E680000040140000400480AB1816170478162B2
:100E78007047000002688368C16930B50569146865
:100E88002B43456924F416442B4324F00C040B43EC
:100E9800234313605368C468056A23F4405323430B
:100EA80053609468836924F430642B43234393602C
:100EB800464B9A420DD103F558431B6B03F00303CD
:100EC800022B70D0032B76D0B1F5004F41684ED07D
:100ED80011E03F4B9A421CD103F5E6331B6B03F438
:100EE8004033B3F5003F5ED009D8002BECD1B1F503
:100EF800004F3BD041684B0803F5E10348E0B3F5E8
:100F0800403F58D0B1F5004F4FF001003CD10023CD
:100F180034E0304B9A420BD103F5E4331B6B03F4F6
:100F28004023B3F5002F3ED0DFD9B3F5402FE8E7D3
:100F3800294B9A420BD103F5E2331B6B03F44013A0
:100F4800B3F5001F2FD0D0D9B3F5401FD9E7234BF5
:100F58009A42D7D103F5E0331B6B03F44003B3F592
:100F6800000F20D0C1D9B3F5400FCAE741684B083C
:100F780003F56103B3FBF1F300209BB223F00F01EB
:100F8800C3F342030B43D36030BD4B0803F5004362
:100F9800B3FBF1F39BB2D3600020F5E703F57403CC
:100FA80003F51053F4E7B1F5004F4168EDD14B0854
:100FB80003F58033DEE7B1F5004F41684FEA51038E
:100FC800ECD103F1F47303F59043D3E70038014003
:100FD8000044004000480040004C004000500040E1
:100FE8002DE9F041DDF81880044616461F462568AD
:100FF800EB6931EA03030CBF01230023B34201D09C
:10100800002016E0B8F1FF3FF2D0B8F1000F12D17E
:101018002B6823F4D0732B60AB6823F00103AB601B
:10102800202384F8693084F86A30002384F8683013
:101038000320BDE8F081FFF76BFBC01B4045D6D904
:10104800E6E773B504460021C166FFF761FB266831
:1010580033681A07054616D433685B070AD56FF05C
:101068007E43009300222B464FF480012046FFF771
:10107800B7FFA0B92023002084F8693084F86800FD
:1010880084F86A300CE06FF07E4300930A4603460A
:101098004FF400112046FFF7A3FF0028DCD00320FF
:1010A80002B070BD38B5044620B390F8693003F03B
:1010B800FF020BB980F868202568242384F869307A
:1010C8002B6823F001032B602046FFF7D3FE01288D
:1010D80010D06B6823F490436B60AB6823F02A034D
:1010E800AB602B6843F001032B602046BDE8384015
:1010F800FFF7A7BF012038BDF7B51E4690F8693045
:10110800202B0D46044611464AD1002D46D0002A10
:1011180044D090F86830012B42D0012380F8683021
:101128000023C366212380F86930FFF7F1FAA4F899
:1011380050100746A4F85210B4F8522092B262B97F
:1011480000963B4640212046FFF74AFF98B92023E6
:1011580084F8693084F868000EE0B4F85220013A47
:1011680092B2A4F852203B460096002280212046E5
:10117800FFF736FF10B1032003B0F0BDA368226863
:10118800B3F5805F07D123692BB935F8023BC3F368
:1011980008031385D0E715F8013BFAE70120EBE7D0
:1011A8000220E9E72DE9F3411E4690F86A30202B2A
:1011B8000D46044611465CD1002D58D0002A56D061
:1011C80090F86830012B54D0012380F86830036808
:1011D8004FF0FF321A620023C366222380F86A3078
:1011E800FFF796FAA368A4F85810B3F5805F804615
:1011F800A4F85A1015D123698BB940F2FF13A4F84B
:101208005C30B4F85C70B4F85A0080B280B920231E
:1012180084F86A3084F8680002B0BDE8F081FF23E2
:10122800EDE7002BEDD12369002BF8D07F23E6E70B
:10123800B4F85A20013A92B2A4F85A2043460096CC
:10124800002220212046FFF7CBFEA0B9A268236820
:10125800B2F5805F06D1226922B99B8C3B4025F804
:10126800023BD0E79B8C3B4005F8013BCBE70120D4
:10127800D2E70220D0E70320CEE7000037B5274A9F
:1012880052F8043B03F11001187810705878507028
:1012980098789070D878D07004338B4202F10402A9
:1012A800F2D11F4B1F4804211A6801928C0716D1EE
:1012B800C2F30745C2F30724455D8DF80550150EA6
:1012C800D2B2045D825C8DF8072000EB9102455D87
:1012D80092F800218DF8065062408DF8042013F82A
:1012E8000C2C9DF8044062401A719DF8054013F8D3
:1012F8000B2C62405A719DF8064013F80A2C624084
:101308009A719DF8074013F8092C013162402C2985
:10131800DA7103F10403C7D103B030BD48030020DC
:1013280058030020000000200B4AD2F8B430F0B572
:10133800000103F11006043214181D1D197814F861
:10134800017B794003F8011BAB42F7D19E4200F1C3
:101358000400F1D1F0BD00BF48030020094B0A4842
:10136800D3F8B43010B5191D002213F82240045DDB
:1013780003F822400132042AF7D101338B42F3D11A
:1013880010BD00BF48030020000000200D4BD3F81B
:10139800B43059795A785970597A5971597B5972B8
:1013A800997A5A739A789970997B9A729A799971FD
:1013B800D97B9A73DA78D970D97AD973D979D972ED
:1013C800DA71704748030020C30903EB430303EBBA
:1013D800C30383EA4000C0B2704700002DE9F84F0C
:1013E8000020FFF7A1FF224F0124FFF7B7FFFFF707
:1013F800CDFFD7F8B42002F1100A92F80090557882
:10140800917892F8038089EA050081EA080B80EA5E
:101418000B06FFF7D9FF89EA00007040107085EAD3
:101428000100FFF7D1FF4540754055705846FFF75A
:10143800CBFF41407140917089EA0800FFF7C4FF73
:1014480088EA000886EA0806D67004329245D4D1A4
:1014580020460134E4B2FFF767FF0A2CC5D1FFF735
:101468007DFFFFF793FF2046BDE8F84FFFF75CBF0D
:10147800480300204B1E01380F3113F8012F00F8E4
:10148800012F8B42F9D17047014B1860FFF7F6BE68
:101498004803002008B501460448C0F8B410B83025
:1014A800FFF7E8FFBDE80840FFF798BF48030020B2
:1014B8007047FFF7E9BFFFF7EDBF70477047704708
:1014C800002103E00B4B5B58435004310A480B4B97
:1014D80042189A42F6D30A4A02E000231360043203
:1014E800084B9A42F9D3AFF3008000F00FF8FEF7EB
:1014F800E1FEFEE7AC150008000000200C02002009
:101508000C0200202C040020FEE7000070B50D4DF1
:101518000D4C641BA4100026A64209D10B4D0C4C9F
:1015280000F026F8641BA4100026A64205D170BD61
:1015380055F8043B98470136EEE755F8043B9847C1
:101548000136F2E7A4150008A4150008A415000840
:10155800A81500080A44914200F1FF3300D17047F2
:1015680010B511F8014B03F8014F9142F9D110BDA4
:10157800F8B500BFF8BC08BC9E467047F8B500BF78
:08158800F8BC08BC9E46704748
:10159000484549477B5265616C4145533132387D3E
:0415A0000000000047
:0415A400AD0100088D
:0415A80089010008AD
:1015AC00637C777BF26B6FC53001672BFED7AB7614
:1015BC00CA82C97DFA5947F0ADD4A2AF9CA472C0BF
:1015CC00B7FD9326363FF7CC34A5E5F171D831152C
:1015DC0004C723C31896059A071280E2EB27B2754D
:1015EC0009832C1A1B6E5AA0523BD6B329E32F84C5
:1015FC0053D100ED20FCB15B6ACBBE394A4C58CFBD
:10160C00D0EFAAFB434D338545F9027F503C9FA890
:10161C0051A3408F929D38F5BCB6DA2110FFF3D25E
:10162C00CD0C13EC5F974417C4A77E3D645D197312
:10163C0060814FDC222A908846EEB814DE5E0BDB0C
:10164C00E0323A0A4906245CC2D3AC629195E47943
:10165C00E7C8376D8DD54EA96C56F4EA657AAE089D
:10166C00BA78252E1CA6B4C6E8DD741F4BBD8B8A38
:10167C00703EB5664803F60E613557B986C11D9E9E
:10168C00E1F8981169D98E949B1E87E9CE5528DF15
:10169C008CA1890DBFE6426841992D0FB054BB1641
:1016AC008D01020408102040801B3652096AD53087
:1016BC0036A538BF40A39E81F3D7FB7CE339829BD0
:1016CC002FFF87348E4344C4DEE9CB547B9432A67F
:1016DC00C2233DEE4C950B42FAC34E082EA1662850
:1016EC00D924B2765BA2496D8BD12572F8F664864B
:1016FC00689816D4A45CCC5D65B6926C704850FDAD
:10170C00EDB9DA5E154657A78D9D8490D8AB008C49
:10171C00BCD30AF7E45805B8B34506D02C1E8FCAC3
:10172C003F0F02C1AFBD0301138A6B3A9111414FB8
:10173C0067DCEA97F2CFCEF0B4E67396AC7422E78E
:10174C00AD3585E2F937E81C75DF6E47F11A711D6E
:10175C0029C5896FB7620EAA18BE1BFC563E4BC634
:10176C00D279209ADBC0FE78CD5AF41FDDA83388DD
:10177C0007C731B11210592780EC5F60517FA9194E
:10178C00B54A0D2DE57A9F93C99CEFA0E03B4DAE79
:10179C002AF5B0C8EBBB3C83539961172B047EBA76
:0C17AC0077D626E169146355210C7D00FE
:04000005080014C912
:00000001FF
